{
  "contractName": "PasaportContract",
  "abi": [
    {
      "anonymous": false,
      "inputs": [
        {
          "indexed": true,
          "internalType": "address",
          "name": "_from",
          "type": "address"
        },
        {
          "indexed": true,
          "internalType": "address",
          "name": "_to",
          "type": "address"
        },
        {
          "indexed": false,
          "internalType": "uint256",
          "name": "_value",
          "type": "uint256"
        }
      ],
      "name": "Transfer",
      "type": "event"
    },
    {
      "inputs": [
        {
          "internalType": "address",
          "name": "",
          "type": "address"
        }
      ],
      "name": "balanceOf",
      "outputs": [
        {
          "internalType": "uint56",
          "name": "",
          "type": "uint56"
        }
      ],
      "stateMutability": "view",
      "type": "function"
    },
    {
      "inputs": [
        {
          "internalType": "address",
          "name": "",
          "type": "address"
        }
      ],
      "name": "consultaMapping",
      "outputs": [
        {
          "internalType": "bool",
          "name": "",
          "type": "bool"
        }
      ],
      "stateMutability": "view",
      "type": "function"
    },
    {
      "inputs": [
        {
          "internalType": "address",
          "name": "",
          "type": "address"
        }
      ],
      "name": "voted",
      "outputs": [
        {
          "internalType": "bool",
          "name": "",
          "type": "bool"
        }
      ],
      "stateMutability": "view",
      "type": "function"
    },
    {
      "inputs": [],
      "name": "lengthConsultaArray",
      "outputs": [
        {
          "internalType": "uint256",
          "name": "",
          "type": "uint256"
        }
      ],
      "stateMutability": "view",
      "type": "function"
    },
    {
      "inputs": [
        {
          "internalType": "address[]",
          "name": "_consulta",
          "type": "address[]"
        }
      ],
      "name": "addConsulta",
      "outputs": [],
      "stateMutability": "nonpayable",
      "type": "function"
    },
    {
      "inputs": [],
      "name": "getConsulta",
      "outputs": [
        {
          "internalType": "address[]",
          "name": "",
          "type": "address[]"
        }
      ],
      "stateMutability": "view",
      "type": "function"
    },
    {
      "inputs": [
        {
          "internalType": "address",
          "name": "_from",
          "type": "address"
        },
        {
          "internalType": "address",
          "name": "_consulta",
          "type": "address"
        }
      ],
      "name": "vote",
      "outputs": [
        {
          "internalType": "bool",
          "name": "success",
          "type": "bool"
        }
      ],
      "stateMutability": "nonpayable",
      "type": "function"
    }
  ],
  "bytecode": "0x608060405234801561001057600080fd5b50611026806100206000396000f3fe608060405234801561001057600080fd5b506004361061007d5760003560e01c8063585321bf1161005b578063585321bf1461010057806370a082311461011e578063aec2ccae1461014e578063c7d680651461017e5761007d565b806318131600146100825780631afa74e5146100a057806337509e8e146100d0575b600080fd5b61008a61019a565b6040516100979190610cd0565b60405180910390f35b6100ba60048036038101906100b59190610b86565b610228565b6040516100c79190610cf2565b60405180910390f35b6100ea60048036038101906100e59190610b59565b610597565b6040516100f79190610cf2565b60405180910390f35b6101086105b7565b6040516101159190610d28565b60405180910390f35b61013860048036038101906101339190610b59565b6105c4565b6040516101459190610d43565b60405180910390f35b61016860048036038101906101639190610b59565b6105ea565b6040516101759190610cf2565b60405180910390f35b61019860048036038101906101939190610bc6565b61060a565b005b6060600380548060200260200160405190810160405280929190818152602001828054801561021e57602002820191906000526020600020905b8160009054906101000a900473ffffffffffffffffffffffffffffffffffffffff1673ffffffffffffffffffffffffffffffffffffffff16815260200190600101908083116101d4575b5050505050905090565b6000600260009054906101000a900473ffffffffffffffffffffffffffffffffffffffff1673ffffffffffffffffffffffffffffffffffffffff163373ffffffffffffffffffffffffffffffffffffffff161461028457600080fd5b8273ffffffffffffffffffffffffffffffffffffffff163373ffffffffffffffffffffffffffffffffffffffff1614156102bd57600080fd5b8173ffffffffffffffffffffffffffffffffffffffff163373ffffffffffffffffffffffffffffffffffffffff1614156102f657600080fd5b60011515600560008573ffffffffffffffffffffffffffffffffffffffff1673ffffffffffffffffffffffffffffffffffffffff16815260200190815260200160002060009054906101000a900460ff161515141561035457600080fd5b60011515600660008473ffffffffffffffffffffffffffffffffffffffff1673ffffffffffffffffffffffffffffffffffffffff16815260200190815260200160002060009054906101000a900460ff161515146103b157600080fd5b6103ba836108c2565b6103c357600080fd5b6001600460008573ffffffffffffffffffffffffffffffffffffffff1673ffffffffffffffffffffffffffffffffffffffff16815260200190815260200160002060008282829054906101000a900466ffffffffffffff166104259190610e25565b92506101000a81548166ffffffffffffff021916908366ffffffffffffff1602179055506001600460008473ffffffffffffffffffffffffffffffffffffffff1673ffffffffffffffffffffffffffffffffffffffff16815260200190815260200160002060008282829054906101000a900466ffffffffffffff166104ab9190610de8565b92506101000a81548166ffffffffffffff021916908366ffffffffffffff1602179055508173ffffffffffffffffffffffffffffffffffffffff168373ffffffffffffffffffffffffffffffffffffffff167fddf252ad1be2c89b69c2b068fc378daa952ba7f163c4a11628f55a4df523b3ef600160405161052d9190610d0d565b60405180910390a36001600560008573ffffffffffffffffffffffffffffffffffffffff1673ffffffffffffffffffffffffffffffffffffffff16815260200190815260200160002060006101000a81548160ff0219169083151502179055506001905092915050565b60066020528060005260406000206000915054906101000a900460ff1681565b6000600380549050905090565b60046020528060005260406000206000915054906101000a900466ffffffffffffff1681565b60056020528060005260406000206000915054906101000a900460ff1681565b600260009054906101000a900473ffffffffffffffffffffffffffffffffffffffff1673ffffffffffffffffffffffffffffffffffffffff163373ffffffffffffffffffffffffffffffffffffffff161461066457600080fd5b6000600260146101000a81548166ffffffffffffff021916908366ffffffffffffff1602179055505b8051600260149054906101000a900466ffffffffffffff1666ffffffffffffff1610156108bf57600115156006600083600260149054906101000a900466ffffffffffffff1666ffffffffffffff16815181106106ed576106ec610f56565b5b602002602001015173ffffffffffffffffffffffffffffffffffffffff1673ffffffffffffffffffffffffffffffffffffffff16815260200190815260200160002060009054906101000a900460ff1615151461087057600381600260149054906101000a900466ffffffffffffff1666ffffffffffffff168151811061077757610776610f56565b5b60200260200101519080600181540180825580915050600190039060005260206000200160009091909190916101000a81548173ffffffffffffffffffffffffffffffffffffffff021916908373ffffffffffffffffffffffffffffffffffffffff16021790555060016006600083600260149054906101000a900466ffffffffffffff1666ffffffffffffff168151811061081657610815610f56565b5b602002602001015173ffffffffffffffffffffffffffffffffffffffff1673ffffffffffffffffffffffffffffffffffffffff16815260200190815260200160002060006101000a81548160ff0219169083151502179055505b6002601481819054906101000a900466ffffffffffffff168092919061089590610ef7565b91906101000a81548166ffffffffffffff021916908366ffffffffffffff1602179055505061068d565b50565b600080600460003373ffffffffffffffffffffffffffffffffffffffff1673ffffffffffffffffffffffffffffffffffffffff16815260200190815260200160002060009054906101000a900466ffffffffffffff1666ffffffffffffff161161092b57600080fd5b6001600460003373ffffffffffffffffffffffffffffffffffffffff1673ffffffffffffffffffffffffffffffffffffffff16815260200190815260200160002060008282829054906101000a900466ffffffffffffff1661098d9190610e25565b92506101000a81548166ffffffffffffff021916908366ffffffffffffff1602179055506001600460008473ffffffffffffffffffffffffffffffffffffffff1673ffffffffffffffffffffffffffffffffffffffff16815260200190815260200160002060008282829054906101000a900466ffffffffffffff16610a139190610de8565b92506101000a81548166ffffffffffffff021916908366ffffffffffffff1602179055508173ffffffffffffffffffffffffffffffffffffffff163373ffffffffffffffffffffffffffffffffffffffff167fddf252ad1be2c89b69c2b068fc378daa952ba7f163c4a11628f55a4df523b3ef6001604051610a959190610d0d565b60405180910390a360019050919050565b6000610ab9610ab484610d83565b610d5e565b90508083825260208201905082856020860282011115610adc57610adb610fb9565b5b60005b85811015610b0c5781610af28882610b16565b845260208401935060208301925050600181019050610adf565b5050509392505050565b600081359050610b2581610fd9565b92915050565b600082601f830112610b4057610b3f610fb4565b5b8135610b50848260208601610aa6565b91505092915050565b600060208284031215610b6f57610b6e610fc3565b5b6000610b7d84828501610b16565b91505092915050565b60008060408385031215610b9d57610b9c610fc3565b5b6000610bab85828601610b16565b9250506020610bbc85828601610b16565b9150509250929050565b600060208284031215610bdc57610bdb610fc3565b5b600082013567ffffffffffffffff811115610bfa57610bf9610fbe565b5b610c0684828501610b2b565b91505092915050565b6000610c1b8383610c27565b60208301905092915050565b610c3081610e59565b82525050565b6000610c4182610dbf565b610c4b8185610dd7565b9350610c5683610daf565b8060005b83811015610c87578151610c6e8882610c0f565b9750610c7983610dca565b925050600181019050610c5a565b5085935050505092915050565b610c9d81610e6b565b82525050565b610cac81610eb4565b82525050565b610cbb81610e97565b82525050565b610cca81610ea1565b82525050565b60006020820190508181036000830152610cea8184610c36565b905092915050565b6000602082019050610d076000830184610c94565b92915050565b6000602082019050610d226000830184610ca3565b92915050565b6000602082019050610d3d6000830184610cb2565b92915050565b6000602082019050610d586000830184610cc1565b92915050565b6000610d68610d79565b9050610d748282610ec6565b919050565b6000604051905090565b600067ffffffffffffffff821115610d9e57610d9d610f85565b5b602082029050602081019050919050565b6000819050602082019050919050565b600081519050919050565b6000602082019050919050565b600082825260208201905092915050565b6000610df382610ea1565b9150610dfe83610ea1565b92508266ffffffffffffff03821115610e1a57610e19610f27565b5b828201905092915050565b6000610e3082610ea1565b9150610e3b83610ea1565b925082821015610e4e57610e4d610f27565b5b828203905092915050565b6000610e6482610e77565b9050919050565b60008115159050919050565b600073ffffffffffffffffffffffffffffffffffffffff82169050919050565b6000819050919050565b600066ffffffffffffff82169050919050565b6000610ebf82610e97565b9050919050565b610ecf82610fc8565b810181811067ffffffffffffffff82111715610eee57610eed610f85565b5b80604052505050565b6000610f0282610ea1565b915066ffffffffffffff821415610f1c57610f1b610f27565b5b600182019050919050565b7f4e487b7100000000000000000000000000000000000000000000000000000000600052601160045260246000fd5b7f4e487b7100000000000000000000000000000000000000000000000000000000600052603260045260246000fd5b7f4e487b7100000000000000000000000000000000000000000000000000000000600052604160045260246000fd5b600080fd5b600080fd5b600080fd5b600080fd5b6000601f19601f8301169050919050565b610fe281610e59565b8114610fed57600080fd5b5056fea2646970667358221220dd4730aaf7e43ba3aaeef1172c96345a1d08bf1effd24813def15876e4f6b08164736f6c63430008050033",
  "immutableReferences": {},
  "source": "// SPDX-License-Identifier: MIT\npragma solidity 0.8.5;\n\ncontract PasaportContract {\n\n    string name;\n    uint56 numero;\n    uint56 totalSupply;\n    address owner;\n    uint56 i;\n    \n    address[] consultaArray;\n    mapping(address => uint56) public balanceOf;\n    mapping(address => bool) public voted;\n    mapping(address => bool) public consultaMapping;\n    \n    //constructor() public { \n    //    name = \"Pasaporte Covid\";\n    //    totalSupply = 100; \n    //    balanceOf[msg.sender] = totalSupply;\n    //   owner = msg.sender;\n    //}\n    \n    event Transfer(address indexed _from, address indexed _to, uint256 _value); \n      \n    function lengthConsultaArray()public view returns(uint256){         \n        return consultaArray.length;     \n          \n    }\n    \n    function addConsulta(address[] memory _consulta) public{ \n        require(msg.sender == owner);\n        for (i = 0; i < _consulta.length; i++){\n            if(consultaMapping [_consulta [i]] != true){\n                consultaArray.push (_consulta[i]);   \n                (consultaMapping [_consulta[i]] = true); \n            }\n        }\n    }\n    \n    function getConsulta() view public returns(address[] memory){ \n        return consultaArray;\n    }\n    \n    function transfer(address _to) private returns (bool success){\n          require(balanceOf[msg.sender]> 0); \n          \n          balanceOf[msg.sender] -= 1; \n          balanceOf[_to] += 1;\n          emit Transfer(msg.sender, _to,  1);\n          return true;\n    }\n    \n    function vote (address _from, address _consulta) public returns (bool success){ \n        require(msg.sender == owner);\n        require(msg.sender != _from );\n        require(msg.sender != _consulta);\n        require(voted[_from] != true);\n        require(consultaMapping[_consulta] == true);\n        require(transfer(_from));\n    \n        balanceOf[_from] -= 1;\n        balanceOf[_consulta] += 1; \n        emit Transfer(_from, _consulta,  1);\n        voted[_from] = true; \n        return true;\n    }\n}",
  "sourcePath": "/home/clear/PasaporteCovid/contracts/PasaportContract.sol",
  "compiler": {
    "name": "solc",
    "version": "0.8.5+commit.a4f2e591.Emscripten.clang"
  },
  "schemaVersion": "3.4.3",
  "updatedAt": "2021-10-23T14:47:24.579Z",
  "devdoc": {
    "kind": "dev",
    "methods": {},
    "version": 1
  },
  "userdoc": {
    "kind": "user",
    "methods": {},
    "version": 1
  }
}